{
    "_format": "hh-sol-artifact-1",
    "contractName": "OceanToken",
    "sourceName": "contracts/OceanToken.sol",
    "abi": [
        {
            "inputs": [
                {
                    "internalType": "uint256",
                    "name": "cap",
                    "type": "uint256"
                },
                {
                    "internalType": "uint256",
                    "name": "reward",
                    "type": "uint256"
                }
            ],
            "stateMutability": "nonpayable",
            "type": "constructor"
        },
        {
            "anonymous": false,
            "inputs": [
                {
                    "indexed": true,
                    "internalType": "address",
                    "name": "owner",
                    "type": "address"
                },
                {
                    "indexed": true,
                    "internalType": "address",
                    "name": "spender",
                    "type": "address"
                },
                {
                    "indexed": false,
                    "internalType": "uint256",
                    "name": "value",
                    "type": "uint256"
                }
            ],
            "name": "Approval",
            "type": "event"
        },
        {
            "anonymous": false,
            "inputs": [
                {
                    "indexed": true,
                    "internalType": "address",
                    "name": "from",
                    "type": "address"
                },
                {
                    "indexed": true,
                    "internalType": "address",
                    "name": "to",
                    "type": "address"
                },
                {
                    "indexed": false,
                    "internalType": "uint256",
                    "name": "value",
                    "type": "uint256"
                }
            ],
            "name": "Transfer",
            "type": "event"
        },
        {
            "inputs": [
                {
                    "internalType": "address",
                    "name": "owner",
                    "type": "address"
                },
                {
                    "internalType": "address",
                    "name": "spender",
                    "type": "address"
                }
            ],
            "name": "allowance",
            "outputs": [
                {
                    "internalType": "uint256",
                    "name": "",
                    "type": "uint256"
                }
            ],
            "stateMutability": "view",
            "type": "function"
        },
        {
            "inputs": [
                {
                    "internalType": "address",
                    "name": "spender",
                    "type": "address"
                },
                {
                    "internalType": "uint256",
                    "name": "amount",
                    "type": "uint256"
                }
            ],
            "name": "approve",
            "outputs": [
                {
                    "internalType": "bool",
                    "name": "",
                    "type": "bool"
                }
            ],
            "stateMutability": "nonpayable",
            "type": "function"
        },
        {
            "inputs": [
                {
                    "internalType": "address",
                    "name": "account",
                    "type": "address"
                }
            ],
            "name": "balanceOf",
            "outputs": [
                {
                    "internalType": "uint256",
                    "name": "",
                    "type": "uint256"
                }
            ],
            "stateMutability": "view",
            "type": "function"
        },
        {
            "inputs": [],
            "name": "blockReward",
            "outputs": [
                {
                    "internalType": "uint256",
                    "name": "",
                    "type": "uint256"
                }
            ],
            "stateMutability": "view",
            "type": "function"
        },
        {
            "inputs": [
                {
                    "internalType": "uint256",
                    "name": "amount",
                    "type": "uint256"
                }
            ],
            "name": "burn",
            "outputs": [],
            "stateMutability": "nonpayable",
            "type": "function"
        },
        {
            "inputs": [
                {
                    "internalType": "address",
                    "name": "account",
                    "type": "address"
                },
                {
                    "internalType": "uint256",
                    "name": "amount",
                    "type": "uint256"
                }
            ],
            "name": "burnFrom",
            "outputs": [],
            "stateMutability": "nonpayable",
            "type": "function"
        },
        {
            "inputs": [],
            "name": "cap",
            "outputs": [
                {
                    "internalType": "uint256",
                    "name": "",
                    "type": "uint256"
                }
            ],
            "stateMutability": "view",
            "type": "function"
        },
        {
            "inputs": [],
            "name": "decimals",
            "outputs": [
                {
                    "internalType": "uint8",
                    "name": "",
                    "type": "uint8"
                }
            ],
            "stateMutability": "view",
            "type": "function"
        },
        {
            "inputs": [
                {
                    "internalType": "address",
                    "name": "spender",
                    "type": "address"
                },
                {
                    "internalType": "uint256",
                    "name": "subtractedValue",
                    "type": "uint256"
                }
            ],
            "name": "decreaseAllowance",
            "outputs": [
                {
                    "internalType": "bool",
                    "name": "",
                    "type": "bool"
                }
            ],
            "stateMutability": "nonpayable",
            "type": "function"
        },
        {
            "inputs": [
                {
                    "internalType": "address",
                    "name": "to",
                    "type": "address"
                },
                {
                    "internalType": "uint256",
                    "name": "value",
                    "type": "uint256"
                }
            ],
            "name": "giveReward",
            "outputs": [
                {
                    "internalType": "bool",
                    "name": "success",
                    "type": "bool"
                }
            ],
            "stateMutability": "nonpayable",
            "type": "function"
        },
        {
            "inputs": [
                {
                    "internalType": "address",
                    "name": "spender",
                    "type": "address"
                },
                {
                    "internalType": "uint256",
                    "name": "addedValue",
                    "type": "uint256"
                }
            ],
            "name": "increaseAllowance",
            "outputs": [
                {
                    "internalType": "bool",
                    "name": "",
                    "type": "bool"
                }
            ],
            "stateMutability": "nonpayable",
            "type": "function"
        },
        {
            "inputs": [],
            "name": "name",
            "outputs": [
                {
                    "internalType": "string",
                    "name": "",
                    "type": "string"
                }
            ],
            "stateMutability": "view",
            "type": "function"
        },
        {
            "inputs": [],
            "name": "owner",
            "outputs": [
                {
                    "internalType": "address payable",
                    "name": "",
                    "type": "address"
                }
            ],
            "stateMutability": "view",
            "type": "function"
        },
        {
            "inputs": [
                {
                    "internalType": "uint256",
                    "name": "reward",
                    "type": "uint256"
                }
            ],
            "name": "setBlockReward",
            "outputs": [],
            "stateMutability": "nonpayable",
            "type": "function"
        },
        {
            "inputs": [],
            "name": "symbol",
            "outputs": [
                {
                    "internalType": "string",
                    "name": "",
                    "type": "string"
                }
            ],
            "stateMutability": "view",
            "type": "function"
        },
        {
            "inputs": [],
            "name": "totalSupply",
            "outputs": [
                {
                    "internalType": "uint256",
                    "name": "",
                    "type": "uint256"
                }
            ],
            "stateMutability": "view",
            "type": "function"
        },
        {
            "inputs": [
                {
                    "internalType": "address",
                    "name": "to",
                    "type": "address"
                },
                {
                    "internalType": "uint256",
                    "name": "amount",
                    "type": "uint256"
                }
            ],
            "name": "transfer",
            "outputs": [
                {
                    "internalType": "bool",
                    "name": "",
                    "type": "bool"
                }
            ],
            "stateMutability": "nonpayable",
            "type": "function"
        },
        {
            "inputs": [
                {
                    "internalType": "address",
                    "name": "from",
                    "type": "address"
                },
                {
                    "internalType": "address",
                    "name": "to",
                    "type": "address"
                },
                {
                    "internalType": "uint256",
                    "name": "amount",
                    "type": "uint256"
                }
            ],
            "name": "transferFrom",
            "outputs": [
                {
                    "internalType": "bool",
                    "name": "",
                    "type": "bool"
                }
            ],
            "stateMutability": "nonpayable",
            "type": "function"
        }
    ],
    "bytecode": "0x60a06040523480156200001157600080fd5b5060405162002bec38038062002bec8339818101604052810190620000379190620005ea565b620000476200021f60201b60201c565b600a620000559190620007c1565b8262000062919062000812565b6040518060400160405280600a81526020017f5465737420546f6b656e000000000000000000000000000000000000000000008152506040518060400160405280600281526020017f54540000000000000000000000000000000000000000000000000000000000008152508160039081620000df919062000acd565b508060049081620000f1919062000acd565b505050600081116200013a576040517f08c379a0000000000000000000000000000000000000000000000000000000008152600401620001319062000c15565b60405180910390fd5b80608081815250505033600560006101000a81548173ffffffffffffffffffffffffffffffffffffffff021916908373ffffffffffffffffffffffffffffffffffffffff160217905550620001e6600560009054906101000a900473ffffffffffffffffffffffffffffffffffffffff16620001bb6200021f60201b60201c565b600a620001c99190620007c1565b63042c1d80620001da919062000812565b6200022860201b60201c565b620001f66200021f60201b60201c565b600a620002049190620007c1565b8162000211919062000812565b600681905550505062000d84565b60006012905090565b62000238620002af60201b60201c565b8162000249620002b960201b60201c565b62000255919062000c37565b111562000299576040517f08c379a0000000000000000000000000000000000000000000000000000000008152600401620002909062000cc2565b60405180910390fd5b620002ab8282620002c360201b60201c565b5050565b6000608051905090565b6000600254905090565b620002d3620002af60201b60201c565b81620002e4620002b960201b60201c565b620002f0919062000c37565b111562000334576040517f08c379a00000000000000000000000000000000000000000000000000000000081526004016200032b9062000cc2565b60405180910390fd5b6200034682826200034a60201b60201c565b5050565b600073ffffffffffffffffffffffffffffffffffffffff168273ffffffffffffffffffffffffffffffffffffffff1603620003bc576040517f08c379a0000000000000000000000000000000000000000000000000000000008152600401620003b39062000d34565b60405180910390fd5b620003d060008383620004b760201b60201c565b8060026000828254620003e4919062000c37565b92505081905550806000808473ffffffffffffffffffffffffffffffffffffffff1673ffffffffffffffffffffffffffffffffffffffff168152602001908152602001600020600082825401925050819055508173ffffffffffffffffffffffffffffffffffffffff16600073ffffffffffffffffffffffffffffffffffffffff167fddf252ad1be2c89b69c2b068fc378daa952ba7f163c4a11628f55a4df523b3ef8360405162000497919062000d67565b60405180910390a3620004b3600083836200058a60201b60201c565b5050565b600073ffffffffffffffffffffffffffffffffffffffff168373ffffffffffffffffffffffffffffffffffffffff16141580156200052157504173ffffffffffffffffffffffffffffffffffffffff168273ffffffffffffffffffffffffffffffffffffffff1614155b80156200055b5750600073ffffffffffffffffffffffffffffffffffffffff164173ffffffffffffffffffffffffffffffffffffffff1614155b156200057257620005716200058f60201b60201c565b5b62000585838383620005a560201b60201c565b505050565b505050565b620005a3416006546200022860201b60201c565b565b505050565b600080fd5b6000819050919050565b620005c481620005af565b8114620005d057600080fd5b50565b600081519050620005e481620005b9565b92915050565b60008060408385031215620006045762000603620005aa565b5b60006200061485828601620005d3565b92505060206200062785828601620005d3565b9150509250929050565b7f4e487b7100000000000000000000000000000000000000000000000000000000600052601160045260246000fd5b60008160011c9050919050565b6000808291508390505b6001851115620006bf5780860481111562000697576200069662000631565b5b6001851615620006a75780820291505b8081029050620006b78562000660565b945062000677565b94509492505050565b600082620006da5760019050620007ad565b81620006ea5760009050620007ad565b81600181146200070357600281146200070e5762000744565b6001915050620007ad565b60ff84111562000723576200072262000631565b5b8360020a9150848211156200073d576200073c62000631565b5b50620007ad565b5060208310610133831016604e8410600b84101617156200077e5782820a90508381111562000778576200077762000631565b5b620007ad565b6200078d84848460016200066d565b92509050818404811115620007a757620007a662000631565b5b81810290505b9392505050565b600060ff82169050919050565b6000620007ce82620005af565b9150620007db83620007b4565b92506200080a7fffffffffffffffffffffffffffffffffffffffffffffffffffffffffffffffff8484620006c8565b905092915050565b60006200081f82620005af565b91506200082c83620005af565b92508282026200083c81620005af565b9150828204841483151762000856576200085562000631565b5b5092915050565b600081519050919050565b7f4e487b7100000000000000000000000000000000000000000000000000000000600052604160045260246000fd5b7f4e487b7100000000000000000000000000000000000000000000000000000000600052602260045260246000fd5b60006002820490506001821680620008df57607f821691505b602082108103620008f557620008f462000897565b5b50919050565b60008190508160005260206000209050919050565b60006020601f8301049050919050565b600082821b905092915050565b6000600883026200095f7fffffffffffffffffffffffffffffffffffffffffffffffffffffffffffffffff8262000920565b6200096b868362000920565b95508019841693508086168417925050509392505050565b6000819050919050565b6000620009ae620009a8620009a284620005af565b62000983565b620005af565b9050919050565b6000819050919050565b620009ca836200098d565b620009e2620009d982620009b5565b8484546200092d565b825550505050565b600090565b620009f9620009ea565b62000a06818484620009bf565b505050565b5b8181101562000a2e5762000a22600082620009ef565b60018101905062000a0c565b5050565b601f82111562000a7d5762000a4781620008fb565b62000a528462000910565b8101602085101562000a62578190505b62000a7a62000a718562000910565b83018262000a0b565b50505b505050565b600082821c905092915050565b600062000aa26000198460080262000a82565b1980831691505092915050565b600062000abd838362000a8f565b9150826002028217905092915050565b62000ad8826200085d565b67ffffffffffffffff81111562000af45762000af362000868565b5b62000b008254620008c6565b62000b0d82828562000a32565b600060209050601f83116001811462000b45576000841562000b30578287015190505b62000b3c858262000aaf565b86555062000bac565b601f19841662000b5586620008fb565b60005b8281101562000b7f5784890151825560018201915060208501945060208101905062000b58565b8683101562000b9f578489015162000b9b601f89168262000a8f565b8355505b6001600288020188555050505b505050505050565b600082825260208201905092915050565b7f45524332304361707065643a2063617020697320300000000000000000000000600082015250565b600062000bfd60158362000bb4565b915062000c0a8262000bc5565b602082019050919050565b6000602082019050818103600083015262000c308162000bee565b9050919050565b600062000c4482620005af565b915062000c5183620005af565b925082820190508082111562000c6c5762000c6b62000631565b5b92915050565b7f45524332304361707065643a2063617020657863656564656400000000000000600082015250565b600062000caa60198362000bb4565b915062000cb78262000c72565b602082019050919050565b6000602082019050818103600083015262000cdd8162000c9b565b9050919050565b7f45524332303a206d696e7420746f20746865207a65726f206164647265737300600082015250565b600062000d1c601f8362000bb4565b915062000d298262000ce4565b602082019050919050565b6000602082019050818103600083015262000d4f8162000d0d565b9050919050565b62000d6181620005af565b82525050565b600060208201905062000d7e600083018462000d56565b92915050565b608051611e4c62000da0600039600061057a0152611e4c6000f3fe608060405234801561001057600080fd5b50600436106101165760003560e01c806342966c68116100a257806395d89b411161007157806395d89b41146102e3578063a457c2d714610301578063a9059cbb14610331578063ce8ae9f314610361578063dd62ed3e1461039157610116565b806342966c681461025d57806370a082311461027957806379cc6790146102a95780638da5cb5b146102c557610116565b80631a18e707116100e95780631a18e707146101a557806323b872dd146101c1578063313ce567146101f1578063355274ea1461020f578063395093511461022d57610116565b806306fdde031461011b578063095ea7b3146101395780630ac168a11461016957806318160ddd14610187575b600080fd5b6101236103c1565b6040516101309190611272565b60405180910390f35b610153600480360381019061014e919061132d565b610453565b6040516101609190611388565b60405180910390f35b610171610476565b60405161017e91906113b2565b60405180910390f35b61018f61047c565b60405161019c91906113b2565b60405180910390f35b6101bf60048036038101906101ba91906113cd565b610486565b005b6101db60048036038101906101d691906113fa565b61053e565b6040516101e89190611388565b60405180910390f35b6101f961056d565b6040516102069190611469565b60405180910390f35b610217610576565b60405161022491906113b2565b60405180910390f35b6102476004803603810190610242919061132d565b61059e565b6040516102549190611388565b60405180910390f35b610277600480360381019061027291906113cd565b6105d5565b005b610293600480360381019061028e9190611484565b6105e9565b6040516102a091906113b2565b60405180910390f35b6102c360048036038101906102be919061132d565b610631565b005b6102cd610651565b6040516102da91906114d2565b60405180910390f35b6102eb610677565b6040516102f89190611272565b60405180910390f35b61031b6004803603810190610316919061132d565b610709565b6040516103289190611388565b60405180910390f35b61034b6004803603810190610346919061132d565b610780565b6040516103589190611388565b60405180910390f35b61037b6004803603810190610376919061132d565b6107a3565b6040516103889190611388565b60405180910390f35b6103ab60048036038101906103a691906114ed565b6107b9565b6040516103b891906113b2565b60405180910390f35b6060600380546103d09061155c565b80601f01602080910402602001604051908101604052809291908181526020018280546103fc9061155c565b80156104495780601f1061041e57610100808354040283529160200191610449565b820191906000526020600020905b81548152906001019060200180831161042c57829003601f168201915b5050505050905090565b60008061045e610840565b905061046b818585610848565b600191505092915050565b60065481565b6000600254905090565b600560009054906101000a900473ffffffffffffffffffffffffffffffffffffffff1673ffffffffffffffffffffffffffffffffffffffff163373ffffffffffffffffffffffffffffffffffffffff1614610516576040517f08c379a000000000000000000000000000000000000000000000000000000000815260040161050d906115ff565b60405180910390fd5b61051e61056d565b600a61052a9190611781565b8161053591906117cc565b60068190555050565b600080610549610840565b9050610556858285610a11565b610561858585610a9d565b60019150509392505050565b60006012905090565b60007f0000000000000000000000000000000000000000000000000000000000000000905090565b6000806105a9610840565b90506105ca8185856105bb85896107b9565b6105c5919061180e565b610848565b600191505092915050565b6105e66105e0610840565b82610d13565b50565b60008060008373ffffffffffffffffffffffffffffffffffffffff1673ffffffffffffffffffffffffffffffffffffffff168152602001908152602001600020549050919050565b6106438261063d610840565b83610a11565b61064d8282610d13565b5050565b600560009054906101000a900473ffffffffffffffffffffffffffffffffffffffff1681565b6060600480546106869061155c565b80601f01602080910402602001604051908101604052809291908181526020018280546106b29061155c565b80156106ff5780601f106106d4576101008083540402835291602001916106ff565b820191906000526020600020905b8154815290600101906020018083116106e257829003601f168201915b5050505050905090565b600080610714610840565b9050600061072282866107b9565b905083811015610767576040517f08c379a000000000000000000000000000000000000000000000000000000000815260040161075e906118b4565b60405180910390fd5b6107748286868403610848565b60019250505092915050565b60008061078b610840565b9050610798818585610a9d565b600191505092915050565b60006107af8383610ee0565b6001905092915050565b6000600160008473ffffffffffffffffffffffffffffffffffffffff1673ffffffffffffffffffffffffffffffffffffffff16815260200190815260200160002060008373ffffffffffffffffffffffffffffffffffffffff1673ffffffffffffffffffffffffffffffffffffffff16815260200190815260200160002054905092915050565b600033905090565b600073ffffffffffffffffffffffffffffffffffffffff168373ffffffffffffffffffffffffffffffffffffffff16036108b7576040517f08c379a00000000000000000000000000000000000000000000000000000000081526004016108ae90611946565b60405180910390fd5b600073ffffffffffffffffffffffffffffffffffffffff168273ffffffffffffffffffffffffffffffffffffffff1603610926576040517f08c379a000000000000000000000000000000000000000000000000000000000815260040161091d906119d8565b60405180910390fd5b80600160008573ffffffffffffffffffffffffffffffffffffffff1673ffffffffffffffffffffffffffffffffffffffff16815260200190815260200160002060008473ffffffffffffffffffffffffffffffffffffffff1673ffffffffffffffffffffffffffffffffffffffff168152602001908152602001600020819055508173ffffffffffffffffffffffffffffffffffffffff168373ffffffffffffffffffffffffffffffffffffffff167f8c5be1e5ebec7d5bd14f71427d1e84f3dd0314c0f7b2291e5b200ac8c7c3b92583604051610a0491906113b2565b60405180910390a3505050565b6000610a1d84846107b9565b90507fffffffffffffffffffffffffffffffffffffffffffffffffffffffffffffffff8114610a975781811015610a89576040517f08c379a0000000000000000000000000000000000000000000000000000000008152600401610a8090611a44565b60405180910390fd5b610a968484848403610848565b5b50505050565b600073ffffffffffffffffffffffffffffffffffffffff168373ffffffffffffffffffffffffffffffffffffffff1603610b0c576040517f08c379a0000000000000000000000000000000000000000000000000000000008152600401610b0390611ad6565b60405180910390fd5b600073ffffffffffffffffffffffffffffffffffffffff168273ffffffffffffffffffffffffffffffffffffffff1603610b7b576040517f08c379a0000000000000000000000000000000000000000000000000000000008152600401610b7290611b68565b60405180910390fd5b610b86838383610f4a565b60008060008573ffffffffffffffffffffffffffffffffffffffff1673ffffffffffffffffffffffffffffffffffffffff16815260200190815260200160002054905081811015610c0c576040517f08c379a0000000000000000000000000000000000000000000000000000000008152600401610c0390611bfa565b60405180910390fd5b8181036000808673ffffffffffffffffffffffffffffffffffffffff1673ffffffffffffffffffffffffffffffffffffffff16815260200190815260200160002081905550816000808573ffffffffffffffffffffffffffffffffffffffff1673ffffffffffffffffffffffffffffffffffffffff168152602001908152602001600020600082825401925050819055508273ffffffffffffffffffffffffffffffffffffffff168473ffffffffffffffffffffffffffffffffffffffff167fddf252ad1be2c89b69c2b068fc378daa952ba7f163c4a11628f55a4df523b3ef84604051610cfa91906113b2565b60405180910390a3610d0d84848461100a565b50505050565b600073ffffffffffffffffffffffffffffffffffffffff168273ffffffffffffffffffffffffffffffffffffffff1603610d82576040517f08c379a0000000000000000000000000000000000000000000000000000000008152600401610d7990611c8c565b60405180910390fd5b610d8e82600083610f4a565b60008060008473ffffffffffffffffffffffffffffffffffffffff1673ffffffffffffffffffffffffffffffffffffffff16815260200190815260200160002054905081811015610e14576040517f08c379a0000000000000000000000000000000000000000000000000000000008152600401610e0b90611d1e565b60405180910390fd5b8181036000808573ffffffffffffffffffffffffffffffffffffffff1673ffffffffffffffffffffffffffffffffffffffff1681526020019081526020016000208190555081600260008282540392505081905550600073ffffffffffffffffffffffffffffffffffffffff168373ffffffffffffffffffffffffffffffffffffffff167fddf252ad1be2c89b69c2b068fc378daa952ba7f163c4a11628f55a4df523b3ef84604051610ec791906113b2565b60405180910390a3610edb8360008461100a565b505050565b610ee8610576565b81610ef161047c565b610efb919061180e565b1115610f3c576040517f08c379a0000000000000000000000000000000000000000000000000000000008152600401610f3390611d8a565b60405180910390fd5b610f46828261100f565b5050565b600073ffffffffffffffffffffffffffffffffffffffff168373ffffffffffffffffffffffffffffffffffffffff1614158015610fb357504173ffffffffffffffffffffffffffffffffffffffff168273ffffffffffffffffffffffffffffffffffffffff1614155b8015610fec5750600073ffffffffffffffffffffffffffffffffffffffff164173ffffffffffffffffffffffffffffffffffffffff1614155b15610ffa57610ff9611079565b5b611005838383611087565b505050565b505050565b611017610576565b8161102061047c565b61102a919061180e565b111561106b576040517f08c379a000000000000000000000000000000000000000000000000000000000815260040161106290611d8a565b60405180910390fd5b611075828261108c565b5050565b61108541600654610ee0565b565b505050565b600073ffffffffffffffffffffffffffffffffffffffff168273ffffffffffffffffffffffffffffffffffffffff16036110fb576040517f08c379a00000000000000000000000000000000000000000000000000000000081526004016110f290611df6565b60405180910390fd5b61110760008383610f4a565b8060026000828254611119919061180e565b92505081905550806000808473ffffffffffffffffffffffffffffffffffffffff1673ffffffffffffffffffffffffffffffffffffffff168152602001908152602001600020600082825401925050819055508173ffffffffffffffffffffffffffffffffffffffff16600073ffffffffffffffffffffffffffffffffffffffff167fddf252ad1be2c89b69c2b068fc378daa952ba7f163c4a11628f55a4df523b3ef836040516111ca91906113b2565b60405180910390a36111de6000838361100a565b5050565b600081519050919050565b600082825260208201905092915050565b60005b8381101561121c578082015181840152602081019050611201565b60008484015250505050565b6000601f19601f8301169050919050565b6000611244826111e2565b61124e81856111ed565b935061125e8185602086016111fe565b61126781611228565b840191505092915050565b6000602082019050818103600083015261128c8184611239565b905092915050565b600080fd5b600073ffffffffffffffffffffffffffffffffffffffff82169050919050565b60006112c482611299565b9050919050565b6112d4816112b9565b81146112df57600080fd5b50565b6000813590506112f1816112cb565b92915050565b6000819050919050565b61130a816112f7565b811461131557600080fd5b50565b60008135905061132781611301565b92915050565b6000806040838503121561134457611343611294565b5b6000611352858286016112e2565b925050602061136385828601611318565b9150509250929050565b60008115159050919050565b6113828161136d565b82525050565b600060208201905061139d6000830184611379565b92915050565b6113ac816112f7565b82525050565b60006020820190506113c760008301846113a3565b92915050565b6000602082840312156113e3576113e2611294565b5b60006113f184828501611318565b91505092915050565b60008060006060848603121561141357611412611294565b5b6000611421868287016112e2565b9350506020611432868287016112e2565b925050604061144386828701611318565b9150509250925092565b600060ff82169050919050565b6114638161144d565b82525050565b600060208201905061147e600083018461145a565b92915050565b60006020828403121561149a57611499611294565b5b60006114a8848285016112e2565b91505092915050565b60006114bc82611299565b9050919050565b6114cc816114b1565b82525050565b60006020820190506114e760008301846114c3565b92915050565b6000806040838503121561150457611503611294565b5b6000611512858286016112e2565b9250506020611523858286016112e2565b9150509250929050565b7f4e487b7100000000000000000000000000000000000000000000000000000000600052602260045260246000fd5b6000600282049050600182168061157457607f821691505b6020821081036115875761158661152d565b5b50919050565b7f4f6e6c7920746865206f776e65722063616e2063616c6c20746869732066756e60008201527f6374696f6e000000000000000000000000000000000000000000000000000000602082015250565b60006115e96025836111ed565b91506115f48261158d565b604082019050919050565b60006020820190508181036000830152611618816115dc565b9050919050565b7f4e487b7100000000000000000000000000000000000000000000000000000000600052601160045260246000fd5b60008160011c9050919050565b6000808291508390505b60018511156116a5578086048111156116815761168061161f565b5b60018516156116905780820291505b808102905061169e8561164e565b9450611665565b94509492505050565b6000826116be576001905061177a565b816116cc576000905061177a565b81600181146116e257600281146116ec5761171b565b600191505061177a565b60ff8411156116fe576116fd61161f565b5b8360020a9150848211156117155761171461161f565b5b5061177a565b5060208310610133831016604e8410600b84101617156117505782820a90508381111561174b5761174a61161f565b5b61177a565b61175d848484600161165b565b925090508184048111156117745761177361161f565b5b81810290505b9392505050565b600061178c826112f7565b91506117978361144d565b92506117c47fffffffffffffffffffffffffffffffffffffffffffffffffffffffffffffffff84846116ae565b905092915050565b60006117d7826112f7565b91506117e2836112f7565b92508282026117f0816112f7565b915082820484148315176118075761180661161f565b5b5092915050565b6000611819826112f7565b9150611824836112f7565b925082820190508082111561183c5761183b61161f565b5b92915050565b7f45524332303a2064656372656173656420616c6c6f77616e63652062656c6f7760008201527f207a65726f000000000000000000000000000000000000000000000000000000602082015250565b600061189e6025836111ed565b91506118a982611842565b604082019050919050565b600060208201905081810360008301526118cd81611891565b9050919050565b7f45524332303a20617070726f76652066726f6d20746865207a65726f2061646460008201527f7265737300000000000000000000000000000000000000000000000000000000602082015250565b60006119306024836111ed565b915061193b826118d4565b604082019050919050565b6000602082019050818103600083015261195f81611923565b9050919050565b7f45524332303a20617070726f766520746f20746865207a65726f20616464726560008201527f7373000000000000000000000000000000000000000000000000000000000000602082015250565b60006119c26022836111ed565b91506119cd82611966565b604082019050919050565b600060208201905081810360008301526119f1816119b5565b9050919050565b7f45524332303a20696e73756666696369656e7420616c6c6f77616e6365000000600082015250565b6000611a2e601d836111ed565b9150611a39826119f8565b602082019050919050565b60006020820190508181036000830152611a5d81611a21565b9050919050565b7f45524332303a207472616e736665722066726f6d20746865207a65726f20616460008201527f6472657373000000000000000000000000000000000000000000000000000000602082015250565b6000611ac06025836111ed565b9150611acb82611a64565b604082019050919050565b60006020820190508181036000830152611aef81611ab3565b9050919050565b7f45524332303a207472616e7366657220746f20746865207a65726f206164647260008201527f6573730000000000000000000000000000000000000000000000000000000000602082015250565b6000611b526023836111ed565b9150611b5d82611af6565b604082019050919050565b60006020820190508181036000830152611b8181611b45565b9050919050565b7f45524332303a207472616e7366657220616d6f756e742065786365656473206260008201527f616c616e63650000000000000000000000000000000000000000000000000000602082015250565b6000611be46026836111ed565b9150611bef82611b88565b604082019050919050565b60006020820190508181036000830152611c1381611bd7565b9050919050565b7f45524332303a206275726e2066726f6d20746865207a65726f2061646472657360008201527f7300000000000000000000000000000000000000000000000000000000000000602082015250565b6000611c766021836111ed565b9150611c8182611c1a565b604082019050919050565b60006020820190508181036000830152611ca581611c69565b9050919050565b7f45524332303a206275726e20616d6f756e7420657863656564732062616c616e60008201527f6365000000000000000000000000000000000000000000000000000000000000602082015250565b6000611d086022836111ed565b9150611d1382611cac565b604082019050919050565b60006020820190508181036000830152611d3781611cfb565b9050919050565b7f45524332304361707065643a2063617020657863656564656400000000000000600082015250565b6000611d746019836111ed565b9150611d7f82611d3e565b602082019050919050565b60006020820190508181036000830152611da381611d67565b9050919050565b7f45524332303a206d696e7420746f20746865207a65726f206164647265737300600082015250565b6000611de0601f836111ed565b9150611deb82611daa565b602082019050919050565b60006020820190508181036000830152611e0f81611dd3565b905091905056fea2646970667358221220e47d77407d06a9bf043363a3a148c593f9c77d9deb5d369c35a341a2270a152064736f6c63430008130033",
    "linkReferences": {},
    "deployedLinkReferences": {}
}