{
    "_format": "hh-sol-artifact-1",
    "contractName": "OceanToken",
    "sourceName": "contracts/OceanToken.sol",
    "abi": [
        {
            "inputs": [
                {
                    "internalType": "uint256",
                    "name": "cap",
                    "type": "uint256"
                },
                {
                    "internalType": "uint256",
                    "name": "reward",
                    "type": "uint256"
                }
            ],
            "stateMutability": "nonpayable",
            "type": "constructor"
        },
        {
            "anonymous": false,
            "inputs": [
                {
                    "indexed": true,
                    "internalType": "address",
                    "name": "owner",
                    "type": "address"
                },
                {
                    "indexed": true,
                    "internalType": "address",
                    "name": "spender",
                    "type": "address"
                },
                {
                    "indexed": false,
                    "internalType": "uint256",
                    "name": "value",
                    "type": "uint256"
                }
            ],
            "name": "Approval",
            "type": "event"
        },
        {
            "anonymous": false,
            "inputs": [
                {
                    "indexed": true,
                    "internalType": "address",
                    "name": "from",
                    "type": "address"
                },
                {
                    "indexed": true,
                    "internalType": "address",
                    "name": "to",
                    "type": "address"
                },
                {
                    "indexed": false,
                    "internalType": "uint256",
                    "name": "value",
                    "type": "uint256"
                }
            ],
            "name": "Transfer",
            "type": "event"
        },
        {
            "inputs": [
                {
                    "internalType": "address",
                    "name": "owner",
                    "type": "address"
                },
                {
                    "internalType": "address",
                    "name": "spender",
                    "type": "address"
                }
            ],
            "name": "allowance",
            "outputs": [
                {
                    "internalType": "uint256",
                    "name": "",
                    "type": "uint256"
                }
            ],
            "stateMutability": "view",
            "type": "function"
        },
        {
            "inputs": [
                {
                    "internalType": "address",
                    "name": "spender",
                    "type": "address"
                },
                {
                    "internalType": "uint256",
                    "name": "amount",
                    "type": "uint256"
                }
            ],
            "name": "approve",
            "outputs": [
                {
                    "internalType": "bool",
                    "name": "",
                    "type": "bool"
                }
            ],
            "stateMutability": "nonpayable",
            "type": "function"
        },
        {
            "inputs": [
                {
                    "internalType": "address",
                    "name": "account",
                    "type": "address"
                }
            ],
            "name": "balanceOf",
            "outputs": [
                {
                    "internalType": "uint256",
                    "name": "",
                    "type": "uint256"
                }
            ],
            "stateMutability": "view",
            "type": "function"
        },
        {
            "inputs": [],
            "name": "blockReward",
            "outputs": [
                {
                    "internalType": "uint256",
                    "name": "",
                    "type": "uint256"
                }
            ],
            "stateMutability": "view",
            "type": "function"
        },
        {
            "inputs": [
                {
                    "internalType": "uint256",
                    "name": "amount",
                    "type": "uint256"
                }
            ],
            "name": "burn",
            "outputs": [],
            "stateMutability": "nonpayable",
            "type": "function"
        },
        {
            "inputs": [
                {
                    "internalType": "address",
                    "name": "account",
                    "type": "address"
                },
                {
                    "internalType": "uint256",
                    "name": "amount",
                    "type": "uint256"
                }
            ],
            "name": "burnFrom",
            "outputs": [],
            "stateMutability": "nonpayable",
            "type": "function"
        },
        {
            "inputs": [],
            "name": "cap",
            "outputs": [
                {
                    "internalType": "uint256",
                    "name": "",
                    "type": "uint256"
                }
            ],
            "stateMutability": "view",
            "type": "function"
        },
        {
            "inputs": [],
            "name": "decimals",
            "outputs": [
                {
                    "internalType": "uint8",
                    "name": "",
                    "type": "uint8"
                }
            ],
            "stateMutability": "view",
            "type": "function"
        },
        {
            "inputs": [
                {
                    "internalType": "address",
                    "name": "spender",
                    "type": "address"
                },
                {
                    "internalType": "uint256",
                    "name": "subtractedValue",
                    "type": "uint256"
                }
            ],
            "name": "decreaseAllowance",
            "outputs": [
                {
                    "internalType": "bool",
                    "name": "",
                    "type": "bool"
                }
            ],
            "stateMutability": "nonpayable",
            "type": "function"
        },
        {
            "inputs": [],
            "name": "destroy",
            "outputs": [],
            "stateMutability": "nonpayable",
            "type": "function"
        },
        {
            "inputs": [
                {
                    "internalType": "address",
                    "name": "spender",
                    "type": "address"
                },
                {
                    "internalType": "uint256",
                    "name": "addedValue",
                    "type": "uint256"
                }
            ],
            "name": "increaseAllowance",
            "outputs": [
                {
                    "internalType": "bool",
                    "name": "",
                    "type": "bool"
                }
            ],
            "stateMutability": "nonpayable",
            "type": "function"
        },
        {
            "inputs": [],
            "name": "name",
            "outputs": [
                {
                    "internalType": "string",
                    "name": "",
                    "type": "string"
                }
            ],
            "stateMutability": "view",
            "type": "function"
        },
        {
            "inputs": [],
            "name": "owner",
            "outputs": [
                {
                    "internalType": "address payable",
                    "name": "",
                    "type": "address"
                }
            ],
            "stateMutability": "view",
            "type": "function"
        },
        {
            "inputs": [
                {
                    "internalType": "uint256",
                    "name": "reward",
                    "type": "uint256"
                }
            ],
            "name": "setBlockReward",
            "outputs": [],
            "stateMutability": "nonpayable",
            "type": "function"
        },
        {
            "inputs": [],
            "name": "symbol",
            "outputs": [
                {
                    "internalType": "string",
                    "name": "",
                    "type": "string"
                }
            ],
            "stateMutability": "view",
            "type": "function"
        },
        {
            "inputs": [],
            "name": "totalSupply",
            "outputs": [
                {
                    "internalType": "uint256",
                    "name": "",
                    "type": "uint256"
                }
            ],
            "stateMutability": "view",
            "type": "function"
        },
        {
            "inputs": [
                {
                    "internalType": "address",
                    "name": "to",
                    "type": "address"
                },
                {
                    "internalType": "uint256",
                    "name": "amount",
                    "type": "uint256"
                }
            ],
            "name": "transfer",
            "outputs": [
                {
                    "internalType": "bool",
                    "name": "",
                    "type": "bool"
                }
            ],
            "stateMutability": "nonpayable",
            "type": "function"
        },
        {
            "inputs": [
                {
                    "internalType": "address",
                    "name": "from",
                    "type": "address"
                },
                {
                    "internalType": "address",
                    "name": "to",
                    "type": "address"
                },
                {
                    "internalType": "uint256",
                    "name": "amount",
                    "type": "uint256"
                }
            ],
            "name": "transferFrom",
            "outputs": [
                {
                    "internalType": "bool",
                    "name": "",
                    "type": "bool"
                }
            ],
            "stateMutability": "nonpayable",
            "type": "function"
        }
    ],
    "bytecode": "0x60a06040523480156200001157600080fd5b5060405162002c7b38038062002c7b8339818101604052810190620000379190620005ea565b620000476200021f60201b60201c565b600a620000559190620007c1565b8262000062919062000812565b6040518060400160405280600a81526020017f4f6365616e546f6b656e000000000000000000000000000000000000000000008152506040518060400160405280600381526020017f4f435400000000000000000000000000000000000000000000000000000000008152508160039081620000df919062000acd565b508060049081620000f1919062000acd565b505050600081116200013a576040517f08c379a0000000000000000000000000000000000000000000000000000000008152600401620001319062000c15565b60405180910390fd5b80608081815250505033600560006101000a81548173ffffffffffffffffffffffffffffffffffffffff021916908373ffffffffffffffffffffffffffffffffffffffff160217905550620001e6600560009054906101000a900473ffffffffffffffffffffffffffffffffffffffff16620001bb6200021f60201b60201c565b600a620001c99190620007c1565b63042c1d80620001da919062000812565b6200022860201b60201c565b620001f66200021f60201b60201c565b600a620002049190620007c1565b8162000211919062000812565b600681905550505062000d84565b60006012905090565b62000238620002af60201b60201c565b8162000249620002b960201b60201c565b62000255919062000c37565b111562000299576040517f08c379a0000000000000000000000000000000000000000000000000000000008152600401620002909062000cc2565b60405180910390fd5b620002ab8282620002c360201b60201c565b5050565b6000608051905090565b6000600254905090565b620002d3620002af60201b60201c565b81620002e4620002b960201b60201c565b620002f0919062000c37565b111562000334576040517f08c379a00000000000000000000000000000000000000000000000000000000081526004016200032b9062000cc2565b60405180910390fd5b6200034682826200034a60201b60201c565b5050565b600073ffffffffffffffffffffffffffffffffffffffff168273ffffffffffffffffffffffffffffffffffffffff1603620003bc576040517f08c379a0000000000000000000000000000000000000000000000000000000008152600401620003b39062000d34565b60405180910390fd5b620003d060008383620004b760201b60201c565b8060026000828254620003e4919062000c37565b92505081905550806000808473ffffffffffffffffffffffffffffffffffffffff1673ffffffffffffffffffffffffffffffffffffffff168152602001908152602001600020600082825401925050819055508173ffffffffffffffffffffffffffffffffffffffff16600073ffffffffffffffffffffffffffffffffffffffff167fddf252ad1be2c89b69c2b068fc378daa952ba7f163c4a11628f55a4df523b3ef8360405162000497919062000d67565b60405180910390a3620004b3600083836200058a60201b60201c565b5050565b600073ffffffffffffffffffffffffffffffffffffffff168373ffffffffffffffffffffffffffffffffffffffff16141580156200052157504173ffffffffffffffffffffffffffffffffffffffff168273ffffffffffffffffffffffffffffffffffffffff1614155b80156200055b5750600073ffffffffffffffffffffffffffffffffffffffff164173ffffffffffffffffffffffffffffffffffffffff1614155b156200057257620005716200058f60201b60201c565b5b62000585838383620005a560201b60201c565b505050565b505050565b620005a3416006546200022860201b60201c565b565b505050565b600080fd5b6000819050919050565b620005c481620005af565b8114620005d057600080fd5b50565b600081519050620005e481620005b9565b92915050565b60008060408385031215620006045762000603620005aa565b5b60006200061485828601620005d3565b92505060206200062785828601620005d3565b9150509250929050565b7f4e487b7100000000000000000000000000000000000000000000000000000000600052601160045260246000fd5b60008160011c9050919050565b6000808291508390505b6001851115620006bf5780860481111562000697576200069662000631565b5b6001851615620006a75780820291505b8081029050620006b78562000660565b945062000677565b94509492505050565b600082620006da5760019050620007ad565b81620006ea5760009050620007ad565b81600181146200070357600281146200070e5762000744565b6001915050620007ad565b60ff84111562000723576200072262000631565b5b8360020a9150848211156200073d576200073c62000631565b5b50620007ad565b5060208310610133831016604e8410600b84101617156200077e5782820a90508381111562000778576200077762000631565b5b620007ad565b6200078d84848460016200066d565b92509050818404811115620007a757620007a662000631565b5b81810290505b9392505050565b600060ff82169050919050565b6000620007ce82620005af565b9150620007db83620007b4565b92506200080a7fffffffffffffffffffffffffffffffffffffffffffffffffffffffffffffffff8484620006c8565b905092915050565b60006200081f82620005af565b91506200082c83620005af565b92508282026200083c81620005af565b9150828204841483151762000856576200085562000631565b5b5092915050565b600081519050919050565b7f4e487b7100000000000000000000000000000000000000000000000000000000600052604160045260246000fd5b7f4e487b7100000000000000000000000000000000000000000000000000000000600052602260045260246000fd5b60006002820490506001821680620008df57607f821691505b602082108103620008f557620008f462000897565b5b50919050565b60008190508160005260206000209050919050565b60006020601f8301049050919050565b600082821b905092915050565b6000600883026200095f7fffffffffffffffffffffffffffffffffffffffffffffffffffffffffffffffff8262000920565b6200096b868362000920565b95508019841693508086168417925050509392505050565b6000819050919050565b6000620009ae620009a8620009a284620005af565b62000983565b620005af565b9050919050565b6000819050919050565b620009ca836200098d565b620009e2620009d982620009b5565b8484546200092d565b825550505050565b600090565b620009f9620009ea565b62000a06818484620009bf565b505050565b5b8181101562000a2e5762000a22600082620009ef565b60018101905062000a0c565b5050565b601f82111562000a7d5762000a4781620008fb565b62000a528462000910565b8101602085101562000a62578190505b62000a7a62000a718562000910565b83018262000a0b565b50505b505050565b600082821c905092915050565b600062000aa26000198460080262000a82565b1980831691505092915050565b600062000abd838362000a8f565b9150826002028217905092915050565b62000ad8826200085d565b67ffffffffffffffff81111562000af45762000af362000868565b5b62000b008254620008c6565b62000b0d82828562000a32565b600060209050601f83116001811462000b45576000841562000b30578287015190505b62000b3c858262000aaf565b86555062000bac565b601f19841662000b5586620008fb565b60005b8281101562000b7f5784890151825560018201915060208501945060208101905062000b58565b8683101562000b9f578489015162000b9b601f89168262000a8f565b8355505b6001600288020188555050505b505050505050565b600082825260208201905092915050565b7f45524332304361707065643a2063617020697320300000000000000000000000600082015250565b600062000bfd60158362000bb4565b915062000c0a8262000bc5565b602082019050919050565b6000602082019050818103600083015262000c308162000bee565b9050919050565b600062000c4482620005af565b915062000c5183620005af565b925082820190508082111562000c6c5762000c6b62000631565b5b92915050565b7f45524332304361707065643a2063617020657863656564656400000000000000600082015250565b600062000caa60198362000bb4565b915062000cb78262000c72565b602082019050919050565b6000602082019050818103600083015262000cdd8162000c9b565b9050919050565b7f45524332303a206d696e7420746f20746865207a65726f206164647265737300600082015250565b600062000d1c601f8362000bb4565b915062000d298262000ce4565b602082019050919050565b6000602082019050818103600083015262000d4f8162000d0d565b9050919050565b62000d6181620005af565b82525050565b600060208201905062000d7e600083018462000d56565b92915050565b608051611edb62000da060003960006105540152611edb6000f3fe608060405234801561001057600080fd5b50600436106101165760003560e01c806342966c68116100a25780638da5cb5b116100715780638da5cb5b146102cf57806395d89b41146102ed578063a457c2d71461030b578063a9059cbb1461033b578063dd62ed3e1461036b57610116565b806342966c681461025d57806370a082311461027957806379cc6790146102a957806383197ef0146102c557610116565b80631a18e707116100e95780631a18e707146101a557806323b872dd146101c1578063313ce567146101f1578063355274ea1461020f578063395093511461022d57610116565b806306fdde031461011b578063095ea7b3146101395780630ac168a11461016957806318160ddd14610187575b600080fd5b61012361039b565b6040516101309190611301565b60405180910390f35b610153600480360381019061014e91906113bc565b61042d565b6040516101609190611417565b60405180910390f35b610171610450565b60405161017e9190611441565b60405180910390f35b61018f610456565b60405161019c9190611441565b60405180910390f35b6101bf60048036038101906101ba919061145c565b610460565b005b6101db60048036038101906101d69190611489565b610518565b6040516101e89190611417565b60405180910390f35b6101f9610547565b60405161020691906114f8565b60405180910390f35b610217610550565b6040516102249190611441565b60405180910390f35b610247600480360381019061024291906113bc565b610578565b6040516102549190611417565b60405180910390f35b6102776004803603810190610272919061145c565b6105af565b005b610293600480360381019061028e9190611513565b6105c3565b6040516102a09190611441565b60405180910390f35b6102c360048036038101906102be91906113bc565b61060b565b005b6102cd61062b565b005b6102d76106f6565b6040516102e49190611561565b60405180910390f35b6102f561071c565b6040516103029190611301565b60405180910390f35b610325600480360381019061032091906113bc565b6107ae565b6040516103329190611417565b60405180910390f35b610355600480360381019061035091906113bc565b610825565b6040516103629190611417565b60405180910390f35b6103856004803603810190610380919061157c565b610848565b6040516103929190611441565b60405180910390f35b6060600380546103aa906115eb565b80601f01602080910402602001604051908101604052809291908181526020018280546103d6906115eb565b80156104235780601f106103f857610100808354040283529160200191610423565b820191906000526020600020905b81548152906001019060200180831161040657829003601f168201915b5050505050905090565b6000806104386108cf565b90506104458185856108d7565b600191505092915050565b60065481565b6000600254905090565b600560009054906101000a900473ffffffffffffffffffffffffffffffffffffffff1673ffffffffffffffffffffffffffffffffffffffff163373ffffffffffffffffffffffffffffffffffffffff16146104f0576040517f08c379a00000000000000000000000000000000000000000000000000000000081526004016104e79061168e565b60405180910390fd5b6104f8610547565b600a6105049190611810565b8161050f919061185b565b60068190555050565b6000806105236108cf565b9050610530858285610aa0565b61053b858585610b2c565b60019150509392505050565b60006012905090565b60007f0000000000000000000000000000000000000000000000000000000000000000905090565b6000806105836108cf565b90506105a48185856105958589610848565b61059f919061189d565b6108d7565b600191505092915050565b6105c06105ba6108cf565b82610da2565b50565b60008060008373ffffffffffffffffffffffffffffffffffffffff1673ffffffffffffffffffffffffffffffffffffffff168152602001908152602001600020549050919050565b61061d826106176108cf565b83610aa0565b6106278282610da2565b5050565b600560009054906101000a900473ffffffffffffffffffffffffffffffffffffffff1673ffffffffffffffffffffffffffffffffffffffff163373ffffffffffffffffffffffffffffffffffffffff16146106bb576040517f08c379a00000000000000000000000000000000000000000000000000000000081526004016106b29061168e565b60405180910390fd5b600560009054906101000a900473ffffffffffffffffffffffffffffffffffffffff1673ffffffffffffffffffffffffffffffffffffffff16ff5b600560009054906101000a900473ffffffffffffffffffffffffffffffffffffffff1681565b60606004805461072b906115eb565b80601f0160208091040260200160405190810160405280929190818152602001828054610757906115eb565b80156107a45780601f10610779576101008083540402835291602001916107a4565b820191906000526020600020905b81548152906001019060200180831161078757829003601f168201915b5050505050905090565b6000806107b96108cf565b905060006107c78286610848565b90508381101561080c576040517f08c379a000000000000000000000000000000000000000000000000000000000815260040161080390611943565b60405180910390fd5b61081982868684036108d7565b60019250505092915050565b6000806108306108cf565b905061083d818585610b2c565b600191505092915050565b6000600160008473ffffffffffffffffffffffffffffffffffffffff1673ffffffffffffffffffffffffffffffffffffffff16815260200190815260200160002060008373ffffffffffffffffffffffffffffffffffffffff1673ffffffffffffffffffffffffffffffffffffffff16815260200190815260200160002054905092915050565b600033905090565b600073ffffffffffffffffffffffffffffffffffffffff168373ffffffffffffffffffffffffffffffffffffffff1603610946576040517f08c379a000000000000000000000000000000000000000000000000000000000815260040161093d906119d5565b60405180910390fd5b600073ffffffffffffffffffffffffffffffffffffffff168273ffffffffffffffffffffffffffffffffffffffff16036109b5576040517f08c379a00000000000000000000000000000000000000000000000000000000081526004016109ac90611a67565b60405180910390fd5b80600160008573ffffffffffffffffffffffffffffffffffffffff1673ffffffffffffffffffffffffffffffffffffffff16815260200190815260200160002060008473ffffffffffffffffffffffffffffffffffffffff1673ffffffffffffffffffffffffffffffffffffffff168152602001908152602001600020819055508173ffffffffffffffffffffffffffffffffffffffff168373ffffffffffffffffffffffffffffffffffffffff167f8c5be1e5ebec7d5bd14f71427d1e84f3dd0314c0f7b2291e5b200ac8c7c3b92583604051610a939190611441565b60405180910390a3505050565b6000610aac8484610848565b90507fffffffffffffffffffffffffffffffffffffffffffffffffffffffffffffffff8114610b265781811015610b18576040517f08c379a0000000000000000000000000000000000000000000000000000000008152600401610b0f90611ad3565b60405180910390fd5b610b2584848484036108d7565b5b50505050565b600073ffffffffffffffffffffffffffffffffffffffff168373ffffffffffffffffffffffffffffffffffffffff1603610b9b576040517f08c379a0000000000000000000000000000000000000000000000000000000008152600401610b9290611b65565b60405180910390fd5b600073ffffffffffffffffffffffffffffffffffffffff168273ffffffffffffffffffffffffffffffffffffffff1603610c0a576040517f08c379a0000000000000000000000000000000000000000000000000000000008152600401610c0190611bf7565b60405180910390fd5b610c15838383610f6f565b60008060008573ffffffffffffffffffffffffffffffffffffffff1673ffffffffffffffffffffffffffffffffffffffff16815260200190815260200160002054905081811015610c9b576040517f08c379a0000000000000000000000000000000000000000000000000000000008152600401610c9290611c89565b60405180910390fd5b8181036000808673ffffffffffffffffffffffffffffffffffffffff1673ffffffffffffffffffffffffffffffffffffffff16815260200190815260200160002081905550816000808573ffffffffffffffffffffffffffffffffffffffff1673ffffffffffffffffffffffffffffffffffffffff168152602001908152602001600020600082825401925050819055508273ffffffffffffffffffffffffffffffffffffffff168473ffffffffffffffffffffffffffffffffffffffff167fddf252ad1be2c89b69c2b068fc378daa952ba7f163c4a11628f55a4df523b3ef84604051610d899190611441565b60405180910390a3610d9c84848461102f565b50505050565b600073ffffffffffffffffffffffffffffffffffffffff168273ffffffffffffffffffffffffffffffffffffffff1603610e11576040517f08c379a0000000000000000000000000000000000000000000000000000000008152600401610e0890611d1b565b60405180910390fd5b610e1d82600083610f6f565b60008060008473ffffffffffffffffffffffffffffffffffffffff1673ffffffffffffffffffffffffffffffffffffffff16815260200190815260200160002054905081811015610ea3576040517f08c379a0000000000000000000000000000000000000000000000000000000008152600401610e9a90611dad565b60405180910390fd5b8181036000808573ffffffffffffffffffffffffffffffffffffffff1673ffffffffffffffffffffffffffffffffffffffff1681526020019081526020016000208190555081600260008282540392505081905550600073ffffffffffffffffffffffffffffffffffffffff168373ffffffffffffffffffffffffffffffffffffffff167fddf252ad1be2c89b69c2b068fc378daa952ba7f163c4a11628f55a4df523b3ef84604051610f569190611441565b60405180910390a3610f6a8360008461102f565b505050565b600073ffffffffffffffffffffffffffffffffffffffff168373ffffffffffffffffffffffffffffffffffffffff1614158015610fd857504173ffffffffffffffffffffffffffffffffffffffff168273ffffffffffffffffffffffffffffffffffffffff1614155b80156110115750600073ffffffffffffffffffffffffffffffffffffffff164173ffffffffffffffffffffffffffffffffffffffff1614155b1561101f5761101e611034565b5b61102a838383611042565b505050565b505050565b61104041600654611047565b565b505050565b61104f610550565b81611058610456565b611062919061189d565b11156110a3576040517f08c379a000000000000000000000000000000000000000000000000000000000815260040161109a90611e19565b60405180910390fd5b6110ad82826110b1565b5050565b6110b9610550565b816110c2610456565b6110cc919061189d565b111561110d576040517f08c379a000000000000000000000000000000000000000000000000000000000815260040161110490611e19565b60405180910390fd5b611117828261111b565b5050565b600073ffffffffffffffffffffffffffffffffffffffff168273ffffffffffffffffffffffffffffffffffffffff160361118a576040517f08c379a000000000000000000000000000000000000000000000000000000000815260040161118190611e85565b60405180910390fd5b61119660008383610f6f565b80600260008282546111a8919061189d565b92505081905550806000808473ffffffffffffffffffffffffffffffffffffffff1673ffffffffffffffffffffffffffffffffffffffff168152602001908152602001600020600082825401925050819055508173ffffffffffffffffffffffffffffffffffffffff16600073ffffffffffffffffffffffffffffffffffffffff167fddf252ad1be2c89b69c2b068fc378daa952ba7f163c4a11628f55a4df523b3ef836040516112599190611441565b60405180910390a361126d6000838361102f565b5050565b600081519050919050565b600082825260208201905092915050565b60005b838110156112ab578082015181840152602081019050611290565b60008484015250505050565b6000601f19601f8301169050919050565b60006112d382611271565b6112dd818561127c565b93506112ed81856020860161128d565b6112f6816112b7565b840191505092915050565b6000602082019050818103600083015261131b81846112c8565b905092915050565b600080fd5b600073ffffffffffffffffffffffffffffffffffffffff82169050919050565b600061135382611328565b9050919050565b61136381611348565b811461136e57600080fd5b50565b6000813590506113808161135a565b92915050565b6000819050919050565b61139981611386565b81146113a457600080fd5b50565b6000813590506113b681611390565b92915050565b600080604083850312156113d3576113d2611323565b5b60006113e185828601611371565b92505060206113f2858286016113a7565b9150509250929050565b60008115159050919050565b611411816113fc565b82525050565b600060208201905061142c6000830184611408565b92915050565b61143b81611386565b82525050565b60006020820190506114566000830184611432565b92915050565b60006020828403121561147257611471611323565b5b6000611480848285016113a7565b91505092915050565b6000806000606084860312156114a2576114a1611323565b5b60006114b086828701611371565b93505060206114c186828701611371565b92505060406114d2868287016113a7565b9150509250925092565b600060ff82169050919050565b6114f2816114dc565b82525050565b600060208201905061150d60008301846114e9565b92915050565b60006020828403121561152957611528611323565b5b600061153784828501611371565b91505092915050565b600061154b82611328565b9050919050565b61155b81611540565b82525050565b60006020820190506115766000830184611552565b92915050565b6000806040838503121561159357611592611323565b5b60006115a185828601611371565b92505060206115b285828601611371565b9150509250929050565b7f4e487b7100000000000000000000000000000000000000000000000000000000600052602260045260246000fd5b6000600282049050600182168061160357607f821691505b602082108103611616576116156115bc565b5b50919050565b7f4f6e6c7920746865206f776e65722063616e2063616c6c20746869732066756e60008201527f6374696f6e000000000000000000000000000000000000000000000000000000602082015250565b600061167860258361127c565b91506116838261161c565b604082019050919050565b600060208201905081810360008301526116a78161166b565b9050919050565b7f4e487b7100000000000000000000000000000000000000000000000000000000600052601160045260246000fd5b60008160011c9050919050565b6000808291508390505b6001851115611734578086048111156117105761170f6116ae565b5b600185161561171f5780820291505b808102905061172d856116dd565b94506116f4565b94509492505050565b60008261174d5760019050611809565b8161175b5760009050611809565b8160018114611771576002811461177b576117aa565b6001915050611809565b60ff84111561178d5761178c6116ae565b5b8360020a9150848211156117a4576117a36116ae565b5b50611809565b5060208310610133831016604e8410600b84101617156117df5782820a9050838111156117da576117d96116ae565b5b611809565b6117ec84848460016116ea565b92509050818404811115611803576118026116ae565b5b81810290505b9392505050565b600061181b82611386565b9150611826836114dc565b92506118537fffffffffffffffffffffffffffffffffffffffffffffffffffffffffffffffff848461173d565b905092915050565b600061186682611386565b915061187183611386565b925082820261187f81611386565b91508282048414831517611896576118956116ae565b5b5092915050565b60006118a882611386565b91506118b383611386565b92508282019050808211156118cb576118ca6116ae565b5b92915050565b7f45524332303a2064656372656173656420616c6c6f77616e63652062656c6f7760008201527f207a65726f000000000000000000000000000000000000000000000000000000602082015250565b600061192d60258361127c565b9150611938826118d1565b604082019050919050565b6000602082019050818103600083015261195c81611920565b9050919050565b7f45524332303a20617070726f76652066726f6d20746865207a65726f2061646460008201527f7265737300000000000000000000000000000000000000000000000000000000602082015250565b60006119bf60248361127c565b91506119ca82611963565b604082019050919050565b600060208201905081810360008301526119ee816119b2565b9050919050565b7f45524332303a20617070726f766520746f20746865207a65726f20616464726560008201527f7373000000000000000000000000000000000000000000000000000000000000602082015250565b6000611a5160228361127c565b9150611a5c826119f5565b604082019050919050565b60006020820190508181036000830152611a8081611a44565b9050919050565b7f45524332303a20696e73756666696369656e7420616c6c6f77616e6365000000600082015250565b6000611abd601d8361127c565b9150611ac882611a87565b602082019050919050565b60006020820190508181036000830152611aec81611ab0565b9050919050565b7f45524332303a207472616e736665722066726f6d20746865207a65726f20616460008201527f6472657373000000000000000000000000000000000000000000000000000000602082015250565b6000611b4f60258361127c565b9150611b5a82611af3565b604082019050919050565b60006020820190508181036000830152611b7e81611b42565b9050919050565b7f45524332303a207472616e7366657220746f20746865207a65726f206164647260008201527f6573730000000000000000000000000000000000000000000000000000000000602082015250565b6000611be160238361127c565b9150611bec82611b85565b604082019050919050565b60006020820190508181036000830152611c1081611bd4565b9050919050565b7f45524332303a207472616e7366657220616d6f756e742065786365656473206260008201527f616c616e63650000000000000000000000000000000000000000000000000000602082015250565b6000611c7360268361127c565b9150611c7e82611c17565b604082019050919050565b60006020820190508181036000830152611ca281611c66565b9050919050565b7f45524332303a206275726e2066726f6d20746865207a65726f2061646472657360008201527f7300000000000000000000000000000000000000000000000000000000000000602082015250565b6000611d0560218361127c565b9150611d1082611ca9565b604082019050919050565b60006020820190508181036000830152611d3481611cf8565b9050919050565b7f45524332303a206275726e20616d6f756e7420657863656564732062616c616e60008201527f6365000000000000000000000000000000000000000000000000000000000000602082015250565b6000611d9760228361127c565b9150611da282611d3b565b604082019050919050565b60006020820190508181036000830152611dc681611d8a565b9050919050565b7f45524332304361707065643a2063617020657863656564656400000000000000600082015250565b6000611e0360198361127c565b9150611e0e82611dcd565b602082019050919050565b60006020820190508181036000830152611e3281611df6565b9050919050565b7f45524332303a206d696e7420746f20746865207a65726f206164647265737300600082015250565b6000611e6f601f8361127c565b9150611e7a82611e39565b602082019050919050565b60006020820190508181036000830152611e9e81611e62565b905091905056fea26469706673582212202c51533dc4cc84b5f0bd9313f1de4066016a69d585ebb29ec014f27e188ae03464736f6c63430008130033",
    "linkReferences": {},
    "deployedLinkReferences": {}
}